{"abi":[{"type":"constructor","inputs":[{"name":"_owner","type":"address","internalType":"address"}],"stateMutability":"nonpayable"},{"type":"function","name":"application","inputs":[{"name":"contextId","type":"bytes32","internalType":"bytes32"}],"outputs":[{"name":"","type":"tuple","internalType":"struct ContextConfig.Application","components":[{"name":"id","type":"bytes32","internalType":"bytes32"},{"name":"blob","type":"bytes32","internalType":"bytes32"},{"name":"size","type":"uint64","internalType":"uint64"},{"name":"source","type":"string","internalType":"string"},{"name":"metadata","type":"bytes","internalType":"bytes"}]}],"stateMutability":"view"},{"type":"function","name":"applicationRevision","inputs":[{"name":"contextId","type":"bytes32","internalType":"bytes32"}],"outputs":[{"name":"","type":"uint32","internalType":"uint32"}],"stateMutability":"view"},{"type":"function","name":"contexts","inputs":[{"name":"","type":"bytes32","internalType":"bytes32"}],"outputs":[{"name":"applicationGuard","type":"tuple","internalType":"struct ContextConfig.Guard","components":[{"name":"privileged","type":"bytes32[]","internalType":"bytes32[]"},{"name":"revision","type":"uint32","internalType":"uint32"}]},{"name":"application","type":"tuple","internalType":"struct ContextConfig.Application","components":[{"name":"id","type":"bytes32","internalType":"bytes32"},{"name":"blob","type":"bytes32","internalType":"bytes32"},{"name":"size","type":"uint64","internalType":"uint64"},{"name":"source","type":"string","internalType":"string"},{"name":"metadata","type":"bytes","internalType":"bytes"}]},{"name":"membersGuard","type":"tuple","internalType":"struct ContextConfig.Guard","components":[{"name":"privileged","type":"bytes32[]","internalType":"bytes32[]"},{"name":"revision","type":"uint32","internalType":"uint32"}]},{"name":"proxyGuard","type":"tuple","internalType":"struct ContextConfig.Guard","components":[{"name":"privileged","type":"bytes32[]","internalType":"bytes32[]"},{"name":"revision","type":"uint32","internalType":"uint32"}]},{"name":"proxyAddress","type":"address","internalType":"address"}],"stateMutability":"view"},{"type":"function","name":"fetchNonce","inputs":[{"name":"contextId","type":"bytes32","internalType":"bytes32"},{"name":"userId","type":"bytes32","internalType":"bytes32"}],"outputs":[{"name":"","type":"uint64","internalType":"uint64"}],"stateMutability":"view"},{"type":"function","name":"hasMember","inputs":[{"name":"contextId","type":"bytes32","internalType":"bytes32"},{"name":"userId","type":"bytes32","internalType":"bytes32"}],"outputs":[{"name":"","type":"bool","internalType":"bool"}],"stateMutability":"view"},{"type":"function","name":"members","inputs":[{"name":"contextId","type":"bytes32","internalType":"bytes32"},{"name":"offset","type":"uint256","internalType":"uint256"},{"name":"length","type":"uint256","internalType":"uint256"}],"outputs":[{"name":"","type":"bytes32[]","internalType":"bytes32[]"}],"stateMutability":"view"},{"type":"function","name":"membersRevision","inputs":[{"name":"contextId","type":"bytes32","internalType":"bytes32"}],"outputs":[{"name":"","type":"uint32","internalType":"uint32"}],"stateMutability":"view"},{"type":"function","name":"mutate","inputs":[{"name":"request","type":"tuple","internalType":"struct ContextConfig.SignedRequest","components":[{"name":"payload","type":"tuple","internalType":"struct ContextConfig.Request","components":[{"name":"signerId","type":"bytes32","internalType":"bytes32"},{"name":"userId","type":"bytes32","internalType":"bytes32"},{"name":"nonce","type":"uint64","internalType":"uint64"},{"name":"kind","type":"uint8","internalType":"enum ContextConfig.RequestKind"},{"name":"data","type":"bytes","internalType":"bytes"}]},{"name":"r","type":"bytes32","internalType":"bytes32"},{"name":"s","type":"bytes32","internalType":"bytes32"},{"name":"v","type":"uint8","internalType":"uint8"}]}],"outputs":[{"name":"","type":"bool","internalType":"bool"}],"stateMutability":"nonpayable"},{"type":"function","name":"owner","inputs":[],"outputs":[{"name":"","type":"address","internalType":"address"}],"stateMutability":"view"},{"type":"function","name":"privileges","inputs":[{"name":"contextId","type":"bytes32","internalType":"bytes32"},{"name":"identities","type":"bytes32[]","internalType":"bytes32[]"}],"outputs":[{"name":"","type":"tuple[]","internalType":"struct ContextConfig.UserCapabilities[]","components":[{"name":"userId","type":"bytes32","internalType":"bytes32"},{"name":"capabilities","type":"uint8[]","internalType":"enum ContextConfig.Capability[]"}]}],"stateMutability":"view"},{"type":"function","name":"proxyBytecode","inputs":[],"outputs":[{"name":"","type":"bytes","internalType":"bytes"}],"stateMutability":"view"},{"type":"function","name":"proxyCodeHash","inputs":[],"outputs":[{"name":"","type":"bytes32","internalType":"bytes32"}],"stateMutability":"view"},{"type":"function","name":"proxyContract","inputs":[{"name":"contextId","type":"bytes32","internalType":"bytes32"}],"outputs":[{"name":"","type":"address","internalType":"address"}],"stateMutability":"view"},{"type":"function","name":"setProxyCode","inputs":[{"name":"newBytecode","type":"bytes","internalType":"bytes"}],"outputs":[{"name":"","type":"bool","internalType":"bool"}],"stateMutability":"nonpayable"},{"type":"event","name":"ApplicationUpdated","inputs":[{"name":"contextId","type":"bytes32","indexed":true,"internalType":"bytes32"}],"anonymous":false},{"type":"event","name":"CapabilityAdded","inputs":[{"name":"contextId","type":"bytes32","indexed":true,"internalType":"bytes32"},{"name":"memberId","type":"bytes32","indexed":false,"internalType":"bytes32"},{"name":"capability","type":"uint8","indexed":false,"internalType":"enum ContextConfig.Capability"}],"anonymous":false},{"type":"event","name":"CapabilityRevoked","inputs":[{"name":"contextId","type":"bytes32","indexed":true,"internalType":"bytes32"},{"name":"memberId","type":"bytes32","indexed":false,"internalType":"bytes32"},{"name":"capability","type":"uint8","indexed":false,"internalType":"enum ContextConfig.Capability"}],"anonymous":false},{"type":"event","name":"ContextCreated","inputs":[{"name":"contextId","type":"bytes32","indexed":true,"internalType":"bytes32"},{"name":"authorId","type":"bytes32","indexed":false,"internalType":"bytes32"}],"anonymous":false},{"type":"event","name":"MembersAdded","inputs":[{"name":"contextId","type":"bytes32","indexed":true,"internalType":"bytes32"},{"name":"members","type":"bytes32[]","indexed":false,"internalType":"bytes32[]"}],"anonymous":false},{"type":"event","name":"MembersRemoved","inputs":[{"name":"contextId","type":"bytes32","indexed":true,"internalType":"bytes32"},{"name":"members","type":"bytes32[]","indexed":false,"internalType":"bytes32[]"}],"anonymous":false},{"type":"event","name":"ProxyCodeUpdated","inputs":[{"name":"newCodeHash","type":"bytes32","indexed":false,"internalType":"bytes32"}],"anonymous":false},{"type":"event","name":"ProxyDeployed","inputs":[{"name":"contextId","type":"bytes32","indexed":true,"internalType":"bytes32"},{"name":"proxyAddress","type":"address","indexed":false,"internalType":"address"}],"anonymous":false},{"type":"event","name":"ProxyUpdated","inputs":[{"name":"contextId","type":"bytes32","indexed":true,"internalType":"bytes32"},{"name":"proxyAddress","type":"address","indexed":false,"internalType":"address"}],"anonymous":false},{"type":"error","name":"ContextAlreadyExists","inputs":[]},{"type":"error","name":"ContextNotFound","inputs":[]},{"type":"error","name":"InvalidNonce","inputs":[]},{"type":"error","name":"InvalidRequest","inputs":[]},{"type":"error","name":"InvalidSignature","inputs":[]},{"type":"error","name":"NotAMember","inputs":[]},{"type":"error","name":"ProxyBytecodeNotSet","inputs":[]},{"type":"error","name":"ProxyDeploymentFailed","inputs":[]},{"type":"error","name":"Unauthorized","inputs":[]}],"bytecode":{"object":"0x60a034606d57601f612b5038819003918201601f19168301916001600160401b03831184841017607157808492602094604052833981010312606d57516001600160a01b0381168103606d57608052604051612aca908161008682396080518181816107bc01526111900152f35b5f80fd5b634e487b7160e01b5f52604160045260245ffdfe60806040526004361015610011575f80fd5b5f3560e01c8063109bd37f146100f457806310d29108146100ef57806340551e8f146100ea57806345560dcb146100e557806345d9013d146100e057806345fa1572146100db578063532ff852146100d65780636e3ee575146100d15780638da5cb5b146100cc578063af318c62146100c7578063b764d14e146100c2578063d8dd08b5146100bd578063e4db15d9146100b85763eee39111146100b3575f80fd5b610a36565b6109e6565b6109ad565b61092d565b6108be565b6107a7565b610735565b610714565b610636565b6105e6565b610536565b610250565b610208565b610182565b805180835260209291819084018484015e5f828201840152601f01601f1916010190565b61016e9181518152602082015160208201526001600160401b036040830151166040820152608061015d606084015160a0606085015260a08401906100f9565b9201519060808184039101526100f9565b90565b90602061016e92818152019061011d565b3461020457602036600319011261020457600435606060806040516101a6816102b7565b5f81525f60208201525f6040820152828082015201525f525f60205260405f2063ffffffff600182015416156101f5576101e560026101f1920161046b565b60405191829182610171565b0390f35b633dd3da8f60e11b5f5260045ffd5b5f80fd5b34610204576020366003190112610204576004356001600160401b038111610204576080600319823603011261020457610246602091600401610d80565b6040519015158152f35b3461020457602036600319011261020457600435805f525f60205263ffffffff600160405f20015416156101f5575f9081526020818152604091829020600c015491516001600160a01b03909216825290f35b634e487b7160e01b5f52604160045260245ffd5b60a081019081106001600160401b038211176102d257604052565b6102a3565b604081019081106001600160401b038211176102d257604052565b606081019081106001600160401b038211176102d257604052565b90601f801991011681019081106001600160401b038211176102d257604052565b90604051918281549182825260208201905f5260205f20925f5b81811061035f57505061035d9250038361030d565b565b8454835260019485019487945060209093019201610348565b6040519061035d60408361030d565b90604051610394816102d7565b602063ffffffff600183956103a88161032e565b8552015416910152565b90600182811c921680156103e0575b60208310146103cc57565b634e487b7160e01b5f52602260045260245ffd5b91607f16916103c1565b5f92918154916103f9836103b2565b808352926001811690811561044e575060011461041557505050565b5f9081526020812093945091925b838310610434575060209250010190565b600181602092949394548385870101520191019190610423565b915050602093945060ff929192191683830152151560051b010190565b906004608060405161047c816102b7565b6104d9819580548352600181015460208401526001600160401b0360028201541660408401526040516104bd816104b681600386016103ea565b038261030d565b60608401526104d260405180968193016103ea565b038461030d565b0152565b90602080835192838152019201905f5b8181106104fa5750505090565b82518452602093840193909201916001016104ed565b90602063ffffffff8161052c85516040865260408601906104dd565b9401511691015290565b34610204576020366003190112610204576004355f525f6020526105b260405f2061056081610387565b906105dc6105706002830161046b565b916105ce61058060078301610387565b6105c061058f600a8501610387565b93600c60018060a01b03910154169560405198899860a08a5260a08a0190610510565b9088820360208a015261011d565b908682036040880152610510565b908482036060860152610510565b9060808301520390f35b3461020457602036600319011261020457600435805f525f60205263ffffffff600160405f20015416156101f5575f908152602081815260409182902060080154915163ffffffff909216825290f35b34610204575f366003190112610204576040515f600254610656816103b2565b80845290600181169081156106f05750600114610692575b6101f18361067e8185038261030d565b6040519182916020835260208301906100f9565b60025f9081527f405787fa12a823e0f2b7631cc41b3ba8828b3321ca811111fa75cd3aa3bb5ace939250905b8082106106d65750909150810160200161067e61066e565b9192600181602092548385880101520191019092916106be565b60ff191660208086019190915291151560051b8401909101915061067e905061066e565b34610204576040366003190112610204576020610246602435600435610fea565b346102045760403660031901126102045760043560243590805f525f60205263ffffffff600160405f20015416156101f5575f525f602052600d60405f2001905f526020526101f16001600160401b0360405f205416604051918291829190916001600160401b036020820193169052565b34610204575f366003190112610204576040517f00000000000000000000000000000000000000000000000000000000000000006001600160a01b03168152602090f35b634e487b7160e01b5f52602160045260245ffd5b6003111561080957565b6107eb565b9060038210156108095752565b602081016020825282518091526040820191602060408360051b8301019401925f915b83831061084d57505050505090565b9091929394603f19828203018352855160206060816040850193805186520151936040838201528451809452019201905f905b80821061089f575050506020806001929701930193019193929061083e565b909192602080826108b3600194885161080e565b019401920190610880565b34610204576040366003190112610204576004356024356001600160401b03811161020457366023820112156102045780600401356001600160401b038111610204573660248260051b84010111610204576101f192602461092193019061104b565b6040519182918261081b565b34610204576020366003190112610204576004356001600160401b0381116102045736602382011215610204578060040135906001600160401b038211610204573660248383010111610204576101f191602461098a920161118b565b60405190151581529081906020820190565b90602061016e9281815201906104dd565b34610204576060366003190112610204576101f16109d26044356024356004356113d4565b6040519182916020835260208301906104dd565b3461020457602036600319011261020457600435805f525f60205263ffffffff600160405f20015416156101f5575f908152602081815260409182902060010154915163ffffffff909216825290f35b34610204575f366003190112610204576020600154604051908152f35b903590609e1981360301821215610204570190565b3560ff811681036102045790565b6001111561020457565b6001111561080957565b3561016e81610a76565b903590601e198136030182121561020457018035906001600160401b0382116102045760200191813603831361020457565b6001600160401b0381116102d257601f01601f191660200190565b929192610aed82610ac6565b91610afb604051938461030d565b829481845281830111610204578281602093845f960137010152565b602081830312610204578035906001600160401b0382116102045701906060828203126102045760405191610b4b836102f2565b80358352602081013560078110156102045760208401526040810135906001600160401b03821161020457019080601f8301121561020457816020610b9293359101610ae1565b604082015290565b6007111561080957565b6001600160401b0381160361020457565b81601f8201121561020457602081519101610bcf82610ac6565b92610bdd604051948561030d565b8284528282011161020457815f926020928386015e8301015290565b919060a0838203126102045760405190610c12826102b7565b819380518352602081015160208401526040810151610c3081610ba4565b604084015260608101516001600160401b0381116102045782610c54918301610bb5565b60608401526080810151916001600160401b03831161020457608092610c7a9201610bb5565b910152565b906020828203126102045781516001600160401b0381116102045761016e9201610bf9565b9190826040910312610204576020825192015160038110156102045790565b6001600160401b0381116102d25760051b60200190565b602081830312610204578051906001600160401b03821161020457019080601f83011215610204578151610d0d81610cc3565b92610d1b604051948561030d565b81845260208085019260051b82010192831161020457602001905b828210610d435750505090565b8151815260209182019101610d36565b9190916040818403126102045780519260208201516001600160401b0381116102045761016e9201610bf9565b610db0610dac610d908380610a53565b60408401356020850135610da660608701610a68565b9261157f565b1590565b610fad57610dc96060610dc38380610a53565b01610a8a565b610dd281610a80565b15610de7575b6341abc80160e01b5f5260045ffd5b610e01610df782610e0993610a53565b6080810190610a94565b810190610b17565b602081018051610e1881610b9a565b610e2181610b9a565b610e49575080610e41604061016e93015160208082518301019101610d53565b915190612248565b60018151610e5681610b9a565b610e5f81610b9a565b03610e87575080610e80604061016e93015160208082518301019101610cda565b9051612035565b60028151610e9481610b9a565b610e9d81610b9a565b03610ec5575080610ebe604061016e93015160208082518301019101610cda565b9051611efd565b60038151610ed281610b9a565b610edb81610b9a565b03610f03575080610efc604061016e93015160208082518301019101610ca4565b9151611e51565b60048151610f1081610b9a565b610f1981610b9a565b03610f41575080610f3a604061016e93015160208082518301019101610ca4565b9151611cb6565b60058151610f4e81610b9a565b610f5781610b9a565b03610f67575061016e9051611b6b565b60069051610f7481610b9a565b610f7d81610b9a565b14610f8b5750505f80610dd8565b80610fa6604061016e93015160208082518301019101610c7f565b90516119da565b638baa579f60e01b5f5260045ffd5b634e487b7160e01b5f52603260045260245ffd5b8054821015610fe5575f5260205f2001905f90565b610fbc565b5f525f60205260405f209063ffffffff600183015416156110455760095f92018054925b83811061101d57505050505f90565b826110288284610fd0565b90549060031b1c1461103c5760010161100e565b50505050600190565b50505f90565b9291925f525f60205260405f2063ffffffff600182015416156101f5576110718161032e565b9061108a600a6110836007840161032e565b920161032e565b9161109486610cc3565b936110a2604051958661030d565b868552602085019660051b81019036821161020457965b8188106110cd57505061016e949550612428565b87358152602097880197016110b9565b916110f69183549060031b91821b915f19901b19161790565b9055565b818110611105575050565b5f81556001016110fa565b90601f821161111d575050565b61035d9160025f5260205f20906020601f840160051c83019310611149575b601f0160051c01906110fa565b909150819061113c565b9190601f811161116257505050565b61035d925f5260205f20906020601f840160051c8301931061114957601f0160051c01906110fa565b9091907f00000000000000000000000000000000000000000000000000000000000000006001600160a01b031633036112f5576001600160401b0383116102d2576111e0836111db6002546103b2565b611110565b5f92601f811160011461126c579081611216816112219461122d96975f91611261575b508160011b915f199060031b1c19161790565b6002555b3691610ae1565b60208151910120600155565b6001546040519081527ff9c3d1ad77d73dd002f901cbb67e070efc4d913014680d59ebccaf8a81b739fd90602090a1600190565b90508401355f611203565b60025f52601f1981167f405787fa12a823e0f2b7631cc41b3ba8828b3321ca811111fa75cd3aa3bb5ace905f5b8181106112dd57509061122d949583611221959493106112c4575b5050600181811b0160025561121a565b8301355f19600384901b60f8161c191690555f806112b4565b84870135835560209687019660019093019201611299565b6282b42960e81b5f5260045ffd5b6040519061131260208361030d565b5f808352366020840137565b6040805190919061132f838261030d565b6001815291601f1901366020840137565b9061134a82610cc3565b611357604051918261030d565b8281528092611368601f1991610cc3565b0190602036910137565b634e487b7160e01b5f52601160045260245ffd5b5f1981019190821161139457565b611372565b9190820391821161139457565b9190820180921161139457565b805115610fe55760200190565b8051821015610fe55760209160051b010190565b6113e8909291925f525f60205260405f2090565b63ffffffff6113fe600183015463ffffffff1690565b16156101f5576009019081548015801561148f575b611483578361142191611399565b908082101561147b5750905b61143682611340565b925f5b838110611447575050505090565b8061146a61146061145a600194866113a6565b86610fd0565b90549060031b1c90565b61147482886113c0565b5201611439565b90509061142d565b5050505061016e611303565b5080841015611413565b908060209392818452848401375f828201840152601f01601f1916010190565b906020825280356020830152602081013560408301526001600160401b0360408201356114e581610ba4565b16606083015260608101356114f981610a76565b60018110156108095760808301526080810135601e19823603018112156102045701602081359101906001600160401b0381116102045780360382136102045760c08360a08061016e9601520191611499565b6040513d5f823e3d90fd5b3561016e81610ba4565b6001600160401b036001911601906001600160401b03821161139457565b925f91611616602094604051868101906115ab8161159d8b856114b9565b03601f19810183528261030d565b5190206040516115ec8161159d8a82019485603c917f19457468657265756d205369676e6564204d6573736167653a0a3332000000008252601c8201520190565b51902092604051948594859094939260ff6060936080840197845216602083015260408201520152565b838052039060015afa156117e8575f516001600160a01b031680159081156117dc575b50610fad5761164e610e016080830183610a94565b9060208201805161165e81610b9a565b61166781610b9a565b156117d45761167e83515f525f60205260405f2090565b63ffffffff611694600183015463ffffffff1690565b16156101f557600d019160208101359260406116c86116bb8684905f5260205260405f2090565b546001600160401b031690565b9201916001600160401b036116eb6116df85611557565b6001600160401b031690565b9116036117c5576117188461170a61170561173395611557565b611561565b92905f5260205260405f2090565b906001600160401b03166001600160401b0319825416179055565b5161173d81610b9a565b61174681610b9a565b6003811480156117b2575b6117a65761175e81610b9a565b60018114908115611792575b5061177a5761016e9151906127cf565b610dac90611789925190612811565b6112f557600190565b6002915061179f81610b9a565b145f61176a565b5061016e9151906127cf565b506117bc81610b9a565b60048114611751565b633ab3447f60e11b5f5260045ffd5b505050600190565b9050813514155f611639565b61154c565b91909182516001600160401b0381116102d2576118148161180e84546103b2565b84611153565b6020601f821160011461184f5781906110f69394955f92611844575b50508160011b915f199060031b1c19161790565b015190505f80611830565b601f19821690611862845f5260205f2090565b915f5b81811061189c57509583600195969710611884575b505050811b019055565b01515f1960f88460031b161c191690555f808061187a565b9192602060018192868b015181550194019201611865565b9080518255602081015160018301556118f36001600160401b0360408301511660028401906001600160401b03166001600160401b0319825416179055565b6003820160608201518051906001600160401b0382116102d2576119218261191b85546103b2565b85611153565b602090601f8311600114611966579261195a8360809461035d9897946004975f926118445750508160011b915f199060031b1c19161790565b90555b015191016117ed565b90601f1983169161197a855f5260205f2090565b925f5b8181106119c257509361035d9796936004969360019383608098106119aa575b505050811b01905561195d565b01515f1960f88460031b161c191690555f808061199d565b9293602060018192878601518155019501930161197d565b90815f525f60205260405f20908051600283015560208101516003830155611a286001600160401b0360408301511660048401906001600160401b03166001600160401b0319825416179055565b6005820160608201518051906001600160401b0382116102d257611a508261191b85546103b2565b602090601f8311600114611af55793611acc9593611a8c84611a9a956080956001995f926118445750508160011b915f199060031b1c19161790565b90555b0151600683016117ed565b01611ab8611aac825463ffffffff1690565b60010163ffffffff1690565b63ffffffff1663ffffffff19825416179055565b7f125b34df02af85f955fd646ed8f7861a8db441fe7ecfbb76fb3b61c1c46dfa5d5f80a2600190565b90601f19831691611b09855f5260205f2090565b925f5b818110611b5357508460809460019894611acc9a9894611a9a988b9510611b3b575b505050811b019055611a8f565b01515f1960f88460031b161c191690555f8080611b2e565b92936020600181928786015181550195019301611b0c565b805f525f60205260405f20611b816002546103b2565b15611c5657611b8f82612958565b906001600160a01b03821615611c4757600c810180546001600160a01b0319166001600160a01b0384161790557f90f293438888f9eb36cfc860a1bccfc3da50bef1e3e97422deadaede67c93a9f91611c3f91611bee90600b90611a9a565b6040516001600160a01b038216815284907fdf435ba10f3afe62208deae07f52df84695d6427424ad08482e94ae2ac91f59190602090a26040516001600160a01b0390911681529081906020820190565b0390a2600190565b631b0a7c4160e31b5f5260045ffd5b630548573b60e51b5f5260045ffd5b80548015611c8c575f190190611c7b8282610fd0565b8154905f199060031b1b1916905555565b634e487b7160e01b5f52603160045260245ffd5b90815260408101929161035d916020019061080e565b9091611cc9825f525f60205260405f2090565b92611cd3826107ff565b60018203611dbd57611cf360018501611ab8611aac825463ffffffff1690565b5f5b845480821015611d925782611d0d6114608489610fd0565b14611d1b5750600101611cf5565b9485611d5a92611d4c7f6ad490b41f4fadf591eacc3c1f01b170204452824bc9fb640a19a08b56006bdb9798611386565b8103611d69575b5050611c65565b611c3f60405192839283611ca0565b611d85611d7e61146061145a611d8b95611386565b9184610fd0565b906110dd565b5f80611d53565b50507f6ad490b41f4fadf591eacc3c1f01b170204452824bc9fb640a19a08b56006bdb929350611d5a565b611dc6826107ff565b81611dec57611de76008600786019501611ab8611aac825463ffffffff1690565b611cf3565b611df5826107ff565b60028203610dd857611de7600b600a86019501611ab8611aac825463ffffffff1690565b805490600160401b8210156102d25781611e3b9160016110f694018155610fd0565b819391549060031b91821b915f19901b19161790565b917f8bb025597f505b0de50fb6e19dd0a24dce5bae03a16188f96047200c50aabed391611e85845f525f60205260405f2090565b611e8e836107ff565b60018303611ea657600181611a9a84611d5a94611e19565b611eaf836107ff565b82611ecc57600881611a9a846007611ec79501611e19565b611d5a565b611ed5836107ff565b60028314611ee4575b50611d5a565b600b81611a9a84600a611ef79501611e19565b5f611ede565b611f0e815f525f60205260405f2090565b905f9160098101935b8051841015611fe757611f2a84826113c0565b51925f5b865480821015611fd85785611f46611460848b610fd0565b14611f545750600101611f2e565b60019398949588611fa39383611f6f611f92959b979b611386565b8203611fad575b5050611f8190611c65565b600d8701905f5260205260405f2090565b805467ffffffffffffffff19169055565b0192919094611f17565b611fc9611460611fd094611fc3611d8594611386565b90610fd0565b918c610fd0565b885f80611f76565b50509360019196929350611fa3565b90611c3f9294507fd813dd3a2142e9749113fda573af3919a9ea86138367b533a83646d168c78649935060086120299101611ab8611aac825463ffffffff1690565b6040519182918261099c565b90612047825f525f60205260405f2090565b60098101918254945f5b82518110156120d15761206481846113c0565b515f5f5b8981106120ab575b50906001929115612083575b5001612051565b611f92816120946120a5938a611e19565b600d8801905f5260205260405f2090565b5f61207c565b826120b9611460838b610fd0565b146120c657600101612068565b506001905080612070565b5094507fcd0872f64372d24eb000f5c8ed17f543d1159573e32472394d5185dd3845057492506120296008611c3f9301611ab8611aac825463ffffffff1690565b8151916001600160401b0383116102d257600160401b83116102d2578154838355808410612170575b50602061214d9101915f5260205f2090565b5f5b83811061215c5750505050565b60019060208451940193818401550161214f565b825f528360205f2091820191015b81811061218b575061213b565b5f815560010161217e565b9080518051906001600160401b0382116102d257600160401b82116102d2578354828555808310612222575b506020016121d3845f5260205f2090565b5f5b83811061220e57505050509060016121f7602061035d94015163ffffffff1690565b91019063ffffffff1663ffffffff19825416179055565b6001906020845194019381840155016121d5565b845f528260205f2091820191015b81811061223d57506121c2565b5f8155600101612230565b909163ffffffff6122706001612265865f525f60205260405f2090565b015463ffffffff1690565b166123af5761227d61131e565b9180612288846113b3565b52612291610378565b928352600160208401526122a361131e565b91816122ae846113b3565b526122ba6002546103b2565b15611c56576122c885612958565b936001600160a01b03851615611c475782600d61239f9361237d7f58305c4d178f066e2d27b9703ee4320a430d0cf1109525c2ccfa9cf0cb0337939861235a61238b96612351611c3f9b61233b8f612327905f525f60205260405f2090565b97612332858a612196565b600289016118b4565b6123488360078901612196565b60098701612112565b600a8501612196565b600c830180546001600160a01b0319166001600160a01b03909216919091179055565b01905f5260205260405f2090565b805467ffffffffffffffff19166001179055565b6040519081529081906020820190565b63f59b445960e01b5f5260045ffd5b906123c882610cc3565b6123d5604051918261030d565b82815280926123e6601f1991610cc3565b01905f5b8281106123f657505050565b602090604051612405816102d7565b5f8152606083820152828285010152016123ea565b5f1981146113945760010190565b9392919091805180155f146126c757505061245961245461244c86518551906113a6565b8351906113a6565b611340565b915f915f5b86518110156124b15780612482610dac61247a6001948b6113c0565b518789612a67565b61248d575b0161245e565b61249781896113c0565b516124ab6124a48761241a565b96886113c0565b52612487565b509390945f5b86518110156124fb57806124d3610dac61247a6001948b6113c0565b6124de575b016124b7565b6124e881896113c0565b516124f56124a48761241a565b526124d8565b509390945f5b8251811015612545578061251d610dac61247a600194876113c0565b612528575b01612501565b61253281856113c0565b5161253f6124a48761241a565b52612522565b50939192612552846123be565b945f5b8581106125655750505050505090565b80612572600192856113c0565b5161257d828a6113c0565b51525f61259461258d83876113c0565b5188612a3b565b6126c0575b6125cc906125b16125aa84886113c0565b5186612a3b565b6126b2575b6125c361258d84886113c0565b6126a957611340565b60206125d8838b6113c0565b5101525f6125e961258d83876113c0565b612681575b6126026125fb83876113c0565b5185612a3b565b612658575b61261b61261483876113c0565b5187612a3b565b612627575b5001612555565b61264c61265291602061263a858d6113c0565b5101516126468261241a565b506113c0565b60029052565b5f612620565b5f61267b6020612668858d6113c0565b510151926126758161241a565b936113c0565b52612607565b50602061268e828a6113c0565b5101516126a461269e84926113b3565b60019052565b6125ee565b6124549061241a565b6126bb9061241a565b6125b6565b5081612599565b6126d0906123be565b925f5b82518110156127c657806126e9600192856113c0565b516126f482886113c0565b51525f61270b61270483876113c0565b518a612a3b565b6127bf575b612721906125b16125aa84886113c0565b602061272d83896113c0565b5101525f61273e61270483876113c0565b61279d575b6127506125fb83876113c0565b612787575b61276261261483876113c0565b61276e575b50016126d3565b61264c61278191602061263a858b6113c0565b5f612767565b5f6127976020612668858b6113c0565b52612755565b5060206127aa82886113c0565b5101516127ba61269e84926113b3565b612743565b5081612710565b50929450505050565b905f525f602052600760405f2001908154915f5b8381106127f257505050505f90565b826127fd8284610fd0565b90549060031b1c1461103c576001016127e3565b905f525f60205260405f2063ffffffff60018201541615611045576007906128385f6107ff565b01805491905f5b83811061284e57505050505f90565b8261285c6114608385610fd0565b1461103c5760010161283f565b63ffffffff60019116019063ffffffff821161139457565b805191908290602001825e015f815290565b9060405191825f6002546128a6816103b2565b906001811690811561293457506001146128d7575b506128c99061035d93612881565b03601f19810184528361030d565b60025f9081529091507f405787fa12a823e0f2b7631cc41b3ba8828b3321ca811111fa75cd3aa3bb5ace5b828210612918575050810160200161035d6128bb565b602091929350806001915483858a010152019101859291612902565b60ff19166020858101919091528215159092028401909101915061035d90506128bb565b6129636002546103b2565b15611c5657612979815f525f60205260405f2090565b63ffffffff61298f600183015463ffffffff1690565b16612a1457506129fa61159d6129f560015b604080516020810187815260e09390931b6001600160e01b031916918101919091524260448201526129d6816064810161159d565b5190206040805160208101969096523090860152939182906060820190565b612893565b6020815191015ff56001600160a01b03811615611c475790565b61159d6129f5612a36612a31600b6129fa95015463ffffffff1690565b612869565b6129a1565b905f5b8251811015612a605781612a5282856113c0565b51146117d457600101612a3e565b5050505f90565b9190915f5b838110612a7b57505050505f90565b82612a8682846113c0565b511461103c57600101612a6c56fea26469706673582212201c6b8295c243fa0c0e0eb8c26492fc45f0d1ac057cdd1875fce7fd3e1c41f68464736f6c634300081c0033","linkReferences":{}},"methodIdentifiers":{"application(bytes32)":"109bd37f","applicationRevision(bytes32)":"e4db15d9","contexts(bytes32)":"45560dcb","fetchNonce(bytes32,bytes32)":"6e3ee575","hasMember(bytes32,bytes32)":"532ff852","members(bytes32,uint256,uint256)":"d8dd08b5","membersRevision(bytes32)":"45d9013d","mutate(((bytes32,bytes32,uint64,uint8,bytes),bytes32,bytes32,uint8))":"10d29108","owner()":"8da5cb5b","privileges(bytes32,bytes32[])":"af318c62","proxyBytecode()":"45fa1572","proxyCodeHash()":"eee39111","proxyContract(bytes32)":"40551e8f","setProxyCode(bytes)":"b764d14e"},"id":0}