{"abi":[{"type":"receive","stateMutability":"payable"},{"type":"function","name":"deposit","inputs":[{"name":"key","type":"string","internalType":"string"},{"name":"value","type":"string","internalType":"string"}],"outputs":[],"stateMutability":"payable"},{"type":"function","name":"getValue","inputs":[{"name":"key","type":"string","internalType":"string"}],"outputs":[{"name":"","type":"string","internalType":"string"}],"stateMutability":"view"},{"type":"function","name":"setValueNoDeposit","inputs":[{"name":"key","type":"string","internalType":"string"},{"name":"value","type":"string","internalType":"string"}],"outputs":[],"stateMutability":"nonpayable"},{"type":"function","name":"totalDeposits","inputs":[],"outputs":[{"name":"","type":"uint256","internalType":"uint256"}],"stateMutability":"view"}],"bytecode":{"object":"0x60808060405234601557610718908161001a8239f35b5f80fdfe60806040526004361015610029575b3615610018575f80fd5b610024346001546105ba565b600155005b5f3560e01c80637a9b486d146103665780637d88209714610349578063960384a01461027157639ebbd5830361000e573461026d576100673661050f565b906040906100a381835161007b8582610497565b601681527529b2ba3a34b733903b30b63ab2903337b91035b2bc9d60511b602082015261067b565b6100d58383516100b38582610497565b601081526f2b30b63ab2903132b4b7339039b2ba1d60811b602082015261067b565b815192815193602081818501968088835e81015f8152030190209080519067ffffffffffffffff82116102595761010c8354610582565b601f8111610214575b50602090601f83116001146101a6579282602093610193969361019999965f9261019b575b50508160011b915f199060031b1c19161790555b8451928391518091835e81015f81520301902061016d83519384610497565b60148352732b30b63ab29030b33a32b91039b2ba3a34b7339d60611b60208401526105db565b9061067b565b005b015190505f8061013a565b90601f19831691845f52815f20925f5b8181106101fc575093610193969361019999969360019383602098106101e4575b505050811b01905561014e565b01515f1960f88460031b161c191690555f80806101d7565b929360206001819287860151815501950193016101b6565b835f5260205f20601f840160051c8101916020851061024f575b601f0160051c01905b8181106102445750610115565b5f8155600101610237565b909150819061022e565b634e487b7160e01b5f52604160045260245ffd5b5f80fd5b3461026d57602036600319011261026d5760043567ffffffffffffffff811161026d576102a56103459136906004016104b9565b6103006020806040936102e58186516102be8882610497565b601681527523b2ba3a34b733903b30b63ab2903337b91035b2bc9d60511b8582015261067b565b8451928184925191829101835e81015f8152030190206105db565b906103338282516103118482610497565b601081526f2932ba3934b2bb32b2103b30b63ab29d60811b602082015261067b565b5191829160208352602083019061055e565b0390f35b3461026d575f36600319011261026d576020600154604051908152f35b6020806103723661050f565b9290604051928184925191829101835e81015f815203019020815167ffffffffffffffff8111610259576103a68254610582565b601f8111610452575b50602092601f82116001146103f357928192935f926103e8575b50508160011b915f199060031b1c1916179055610024346001546105ba565b0151905083806103c9565b601f19821693835f52805f20915f5b86811061043a5750836001959610610422575b505050811b019055610018565b01515f1960f88460031b161c19169055838080610415565b91926020600181928685015181550194019201610402565b825f5260205f20601f830160051c8101916020841061048d575b601f0160051c01905b81811061048257506103af565b5f8155600101610475565b909150819061046c565b90601f8019910116810190811067ffffffffffffffff82111761025957604052565b81601f8201121561026d5780359067ffffffffffffffff821161025957604051926104ee601f8401601f191660200185610497565b8284526020838301011161026d57815f926020809301838601378301015290565b90604060031983011261026d5760043567ffffffffffffffff811161026d578261053b916004016104b9565b916024359067ffffffffffffffff821161026d5761055b916004016104b9565b90565b805180835260209291819084018484015e5f828201840152601f01601f1916010190565b90600182811c921680156105b0575b602083101461059c57565b634e487b7160e01b5f52602260045260245ffd5b91607f1691610591565b919082018092116105c757565b634e487b7160e01b5f52601160045260245ffd5b9060405191825f8254926105ee84610582565b80845293600181169081156106595750600114610615575b5061061392500383610497565b565b90505f9291925260205f20905f915b81831061063d575050906020610613928201015f610606565b6020919350806001915483858901015201910190918492610624565b90506020925061061394915060ff191682840152151560051b8201015f610606565b5f91906106c16106cf84936040519283916106af6020840196634b5c427760e01b885260406024860152606485019061055e565b8381036023190160448501529061055e565b03601f198101835282610497565b51906a636f6e736f6c652e6c6f675afa5056fea264697066735822122074d91c3ab997a14d15353aed4ba4c8afa4daecc6564273828ebc2a5afb3f563864736f6c634300081c0033","linkReferences":{}},"methodIdentifiers":{"deposit(string,string)":"7a9b486d","getValue(string)":"960384a0","setValueNoDeposit(string,string)":"9ebbd583","totalDeposits()":"7d882097"},"id":21}