{"abi":[{"type":"constructor","inputs":[{"name":"_contextId","type":"bytes32","internalType":"bytes32"},{"name":"_owner","type":"address","internalType":"address"}],"stateMutability":"nonpayable"},{"type":"receive","stateMutability":"payable"},{"type":"function","name":"activeProposalsLimit","inputs":[],"outputs":[{"name":"","type":"uint32","internalType":"uint32"}],"stateMutability":"view"},{"type":"function","name":"approvals","inputs":[{"name":"","type":"bytes32","internalType":"bytes32"},{"name":"","type":"uint256","internalType":"uint256"}],"outputs":[{"name":"","type":"bytes32","internalType":"bytes32"}],"stateMutability":"view"},{"type":"function","name":"contextConfigId","inputs":[],"outputs":[{"name":"","type":"address","internalType":"address"}],"stateMutability":"view"},{"type":"function","name":"contextId","inputs":[],"outputs":[{"name":"","type":"bytes32","internalType":"bytes32"}],"stateMutability":"view"},{"type":"function","name":"contextStorage","inputs":[{"name":"","type":"bytes","internalType":"bytes"}],"outputs":[{"name":"","type":"bytes","internalType":"bytes"}],"stateMutability":"view"},{"type":"function","name":"contextStorageEntries","inputs":[{"name":"fromIndex","type":"uint32","internalType":"uint32"},{"name":"limit","type":"uint32","internalType":"uint32"}],"outputs":[{"name":"","type":"bytes[]","internalType":"bytes[]"},{"name":"","type":"bytes[]","internalType":"bytes[]"}],"stateMutability":"view"},{"type":"function","name":"getActiveProposalsLimit","inputs":[],"outputs":[{"name":"","type":"uint32","internalType":"uint32"}],"stateMutability":"view"},{"type":"function","name":"getConfirmationsCount","inputs":[{"name":"proposalId","type":"bytes32","internalType":"bytes32"}],"outputs":[{"name":"","type":"tuple","internalType":"struct ContextProxy.ProposalWithApprovals","components":[{"name":"proposalId","type":"bytes32","internalType":"bytes32"},{"name":"numApprovals","type":"uint32","internalType":"uint32"}]}],"stateMutability":"view"},{"type":"function","name":"getContextValue","inputs":[{"name":"key","type":"bytes","internalType":"bytes"}],"outputs":[{"name":"","type":"bytes","internalType":"bytes"}],"stateMutability":"view"},{"type":"function","name":"getNumApprovals","inputs":[],"outputs":[{"name":"","type":"uint32","internalType":"uint32"}],"stateMutability":"view"},{"type":"function","name":"getProposal","inputs":[{"name":"proposalId","type":"bytes32","internalType":"bytes32"}],"outputs":[{"name":"","type":"tuple","internalType":"struct ContextProxy.Proposal","components":[{"name":"id","type":"bytes32","internalType":"bytes32"},{"name":"authorId","type":"bytes32","internalType":"bytes32"},{"name":"actions","type":"tuple[]","internalType":"struct ContextProxy.ProposalAction[]","components":[{"name":"kind","type":"uint8","internalType":"enum ContextProxy.ProposalActionKind"},{"name":"data","type":"bytes","internalType":"bytes"}]}]}],"stateMutability":"view"},{"type":"function","name":"getProposalCount","inputs":[],"outputs":[{"name":"","type":"uint256","internalType":"uint256"}],"stateMutability":"view"},{"type":"function","name":"getProposals","inputs":[{"name":"fromIndex","type":"uint32","internalType":"uint32"},{"name":"limit","type":"uint32","internalType":"uint32"}],"outputs":[{"name":"","type":"tuple[]","internalType":"struct ContextProxy.Proposal[]","components":[{"name":"id","type":"bytes32","internalType":"bytes32"},{"name":"authorId","type":"bytes32","internalType":"bytes32"},{"name":"actions","type":"tuple[]","internalType":"struct ContextProxy.ProposalAction[]","components":[{"name":"kind","type":"uint8","internalType":"enum ContextProxy.ProposalActionKind"},{"name":"data","type":"bytes","internalType":"bytes"}]}]}],"stateMutability":"view"},{"type":"function","name":"mutate","inputs":[{"name":"signedRequest","type":"tuple","internalType":"struct ContextProxy.SignedRequest","components":[{"name":"payload","type":"tuple","internalType":"struct ContextProxy.Request","components":[{"name":"signerId","type":"bytes32","internalType":"bytes32"},{"name":"userId","type":"bytes32","internalType":"bytes32"},{"name":"kind","type":"uint8","internalType":"enum ContextProxy.RequestKind"},{"name":"data","type":"bytes","internalType":"bytes"}]},{"name":"r","type":"bytes32","internalType":"bytes32"},{"name":"s","type":"bytes32","internalType":"bytes32"},{"name":"v","type":"uint8","internalType":"uint8"}]}],"outputs":[{"name":"","type":"tuple","internalType":"struct ContextProxy.ProposalWithApprovals","components":[{"name":"proposalId","type":"bytes32","internalType":"bytes32"},{"name":"numApprovals","type":"uint32","internalType":"uint32"}]}],"stateMutability":"nonpayable"},{"type":"function","name":"numApprovals","inputs":[],"outputs":[{"name":"","type":"uint32","internalType":"uint32"}],"stateMutability":"view"},{"type":"function","name":"numProposalsPk","inputs":[{"name":"","type":"bytes32","internalType":"bytes32"}],"outputs":[{"name":"","type":"uint32","internalType":"uint32"}],"stateMutability":"view"},{"type":"function","name":"proposalApprovalsWithSigner","inputs":[{"name":"proposalId","type":"bytes32","internalType":"bytes32"}],"outputs":[{"name":"","type":"tuple[]","internalType":"struct ContextProxy.ProposalApprovalWithSigner[]","components":[{"name":"proposalId","type":"bytes32","internalType":"bytes32"},{"name":"userId","type":"bytes32","internalType":"bytes32"}]}],"stateMutability":"view"},{"type":"function","name":"proposalApprovers","inputs":[{"name":"proposalId","type":"bytes32","internalType":"bytes32"}],"outputs":[{"name":"","type":"bytes32[]","internalType":"bytes32[]"}],"stateMutability":"view"},{"type":"function","name":"proposals","inputs":[{"name":"","type":"bytes32","internalType":"bytes32"}],"outputs":[{"name":"id","type":"bytes32","internalType":"bytes32"},{"name":"authorId","type":"bytes32","internalType":"bytes32"}],"stateMutability":"view"},{"type":"function","name":"upgrade","inputs":[{"name":"implementation","type":"address","internalType":"address"},{"name":"contextAddress","type":"address","internalType":"address"}],"outputs":[],"stateMutability":"nonpayable"},{"type":"event","name":"ActiveProposalsLimitChanged","inputs":[{"name":"oldValue","type":"uint32","indexed":false,"internalType":"uint32"},{"name":"newValue","type":"uint32","indexed":false,"internalType":"uint32"}],"anonymous":false},{"type":"event","name":"ContextValueSet","inputs":[{"name":"key","type":"bytes","indexed":false,"internalType":"bytes"},{"name":"value","type":"bytes","indexed":false,"internalType":"bytes"}],"anonymous":false},{"type":"event","name":"ExternalCallExecuted","inputs":[{"name":"target","type":"address","indexed":false,"internalType":"address"},{"name":"selector","type":"bytes4","indexed":false,"internalType":"bytes4"},{"name":"value","type":"uint256","indexed":false,"internalType":"uint256"}],"anonymous":false},{"type":"event","name":"NumApprovalsChanged","inputs":[{"name":"oldValue","type":"uint32","indexed":false,"internalType":"uint32"},{"name":"newValue","type":"uint32","indexed":false,"internalType":"uint32"}],"anonymous":false},{"type":"event","name":"ProposalApproved","inputs":[{"name":"proposalId","type":"bytes32","indexed":true,"internalType":"bytes32"},{"name":"signerId","type":"bytes32","indexed":false,"internalType":"bytes32"},{"name":"numApprovals","type":"uint32","indexed":false,"internalType":"uint32"}],"anonymous":false},{"type":"event","name":"ProposalCreated","inputs":[{"name":"proposalId","type":"bytes32","indexed":true,"internalType":"bytes32"},{"name":"authorId","type":"bytes32","indexed":false,"internalType":"bytes32"}],"anonymous":false},{"type":"event","name":"ProposalDeleted","inputs":[{"name":"proposalId","type":"bytes32","indexed":true,"internalType":"bytes32"}],"anonymous":false},{"type":"event","name":"ProposalExecuted","inputs":[{"name":"proposalId","type":"bytes32","indexed":true,"internalType":"bytes32"}],"anonymous":false},{"type":"event","name":"TokenTransferred","inputs":[{"name":"to","type":"address","indexed":false,"internalType":"address"},{"name":"amount","type":"uint256","indexed":false,"internalType":"uint256"}],"anonymous":false},{"type":"error","name":"AlreadyInitialized","inputs":[]},{"type":"error","name":"InsufficientBalance","inputs":[]},{"type":"error","name":"InvalidAction","inputs":[]},{"type":"error","name":"InvalidSignature","inputs":[]},{"type":"error","name":"ProposalAlreadyApproved","inputs":[]},{"type":"error","name":"ProposalNotFound","inputs":[]},{"type":"error","name":"TooManyActiveProposals","inputs":[]},{"type":"error","name":"Unauthorized","inputs":[]}],"bytecode":{"object":"0x60c0346100b057601f6126dc38819003918201601f19168301916001600160401b038311848410176100b45780849260409485528339810103126100b0578051602090910151906001600160a01b03821682036100b05760805260a052600363ffffffff195f5416175f55600a63ffffffff19600454161760045560405161261390816100c982396080518181816107f40152611498015260a0518181816109a001528181610aed01526114d40152f35b5f80fd5b634e487b7160e01b5f52604160045260245ffdfe6080604052600436101561001a575b3615610018575f80fd5b005b5f3560e01c8063068127191461014f57806316ba2943146101275780631cd9aa0e1461012257806331eadd0c1461014a57806332ed5b121461014557806339c5015714610140578063430694cf1461013b57806346f5cf1e146101365780635227206d146101315780635aef39861461012c5780635fe3eb58146101275780637403c5e514610122578063789250211461011d57806399a88ec414610118578063a337829914610113578063b20732c81461010e578063b3a8982914610109578063b61bf0bb14610104578063c08cc02d146100ff5763e271da6a0361000e57610d81565b610d64565b610d45565b610cf3565b610ad8565b610a17565b6108cd565b610875565b610355565b610332565b6107dd565b61077b565b610710565b610655565b61056b565b610420565b6103b0565b61022f565b63ffffffff81160361016257565b5f80fd5b60409060031901126101625760043561017e81610154565b9060243561018b81610154565b90565b805180835260209291819084018484015e5f828201840152601f01601f1916010190565b9080602083519182815201916020808360051b8301019401925f915b8383106101dd57505050505090565b90919293946020806101fb600193601f19868203018752895161018e565b970193019301919392906101ce565b909161022161018b936040845260408401906101b2565b9160208184039101526101b2565b346101625761023d36610166565b905f9160065463ffffffff8316908082106102f4575b50505061025f82610e06565b9161026981610e06565b925f5b63ffffffff8116838110156102e157906102d66102dc926102c56102c06102a461029e610299878c610e7e565b61082b565b50610c55565b806102af858a610e98565b526102ba8489610e98565b50610bfe565b610c55565b6102cf828a610e98565b5287610e98565b50610e4f565b61026c565b604051806102f088868361020a565b0390f35b90809293945081039281841161032d5763ffffffff168093105f146103265761031d9250610de2565b905f8080610253565b505061031d565b610db1565b34610162575f36600319011261016257602063ffffffff60045416604051908152f35b34610162575f36600319011261016257602063ffffffff5f5416604051908152f35b60206040818301928281528451809452019201905f5b81811061039a5750505090565b825184526020938401939092019160010161038d565b34610162576020366003190112610162576004355f52600260205260405f206040519081602082549182815201915f5260205f20905f5b81811061040a576102f0856103fe81870382610b6b565b60405191829182610377565b82548452602090930192600192830192016103e7565b34610162576020366003190112610162576004355f908152600160208181526040928390208054920154835192835290820152f35b634e487b7160e01b5f52602160045260245ffd5b6006111561047357565b610455565b906040606082019280518352602081015160208401520151916060604083015282518091526080820190602060808260051b8501019401925f905b8282106104c257505050505090565b9091929394607f198282030185528551908151916006831015610473576104ff82604060208095946001978296520151918185820152019061018e565b97019501939201906104b3565b602081016020825282518091526040820191602060408360051b8301019401925f915b83831061053e57505050505090565b909192939460208061055c600193603f198682030187528951610478565b9701930193019193929061052f565b346101625763ffffffff61057e36610166565b5f9291929083600754808583161061060b575b505050169061059f82610ee5565b915f5b63ffffffff8116828110156105fd57816105f56001926102c56105f06105e26105d86105d363ffffffff998c610e7e565b610848565b90549060031b1c90565b5f52600160205260405f2090565b610f68565b5001166105a2565b604051806102f0878261050c565b9192509063ffffffff1661061f8282610eac565b838516908516101561063d576106359250610eac565b5f8381610591565b5050610635565b90602061018b928181520190610478565b3461016257602036600319011261016257600435610671610ec6565b505f52600160205260405f2060026040519161068c83610b30565b8054835260018101546020840152019081546106a781610def565b926106b56040519485610b6b565b81845260208401905f5260205f205f915b8383106106e157604080860187905251806102f08782610644565b600260206001926106f185610f34565b8152019201920191906106c6565b90602061018b92818152019061018e565b34610162576020366003190112610162576004356001600160401b03811161016257366023820112156101625780600401356001600160401b038111610162573660248284010111610162576102c061076f9160246102f09401610fe2565b604051918291826106ff565b34610162576020366003190112610162576004356001600160401b0381116101625760806003198236030112610162576107ba6102f091600401611271565b60405191829182919091602063ffffffff81604084019580518552015116910152565b34610162575f3660031901126101625760206040517f00000000000000000000000000000000000000000000000000000000000000008152f35b634e487b7160e01b5f52603260045260245ffd5b6006548110156108435760065f5260205f2001905f90565b610817565b6007548110156108435760075f5260205f2001905f90565b8054821015610843575f5260205f2001905f90565b3461016257604036600319011261016257600435602435905f52600260205260405f208054821015610162576020916108ad91610860565b90549060031b1c604051908152f35b6001600160a01b0381160361016257565b34610162576040366003190112610162576004356108ea816108bc565b6024356108f6816108bc565b60018060a01b03168033149081159161099e575b5061099057803b1561094157803b15610941577f360894a13ba1a3210667c828492db98dca3e2076cc3735a920a3ca505d382bbc55005b60405162461bcd60e51b815260206004820152602160248201527f496d706c656d656e746174696f6e206d757374206265206120636f6e747261636044820152601d60fa1b6064820152608490fd5b6282b42960e81b5f5260045ffd5b7f00000000000000000000000000000000000000000000000000000000000000006001600160a01b0316141590505f61090a565b60206040818301928281528451809452019201905f5b8181106109f55750505090565b82518051855260209081015181860152604090940193909201916001016109e8565b3461016257602036600319011261016257600435805f52600260205260405f2090815490610a4482610def565b92610a526040519485610b6b565b828452601f19610a6184610def565b015f5b818110610ac15750505f5b838110610a8457604051806102f087826109d2565b80610a946105d860019385610860565b610a9c610b8c565b908582526020820152610aaf8288610e98565b52610aba8187610e98565b5001610a6f565b602090610acc610ffb565b82828901015201610a64565b34610162575f366003190112610162576040517f00000000000000000000000000000000000000000000000000000000000000006001600160a01b03168152602090f35b634e487b7160e01b5f52604160045260245ffd5b606081019081106001600160401b03821117610b4b57604052565b610b1c565b604081019081106001600160401b03821117610b4b57604052565b90601f801991011681019081106001600160401b03821117610b4b57604052565b60405190610b9b604083610b6b565b565b6001600160401b038111610b4b57601f01601f191660200190565b81601f8201121561016257803590610bcf82610b9d565b92610bdd6040519485610b6b565b8284526020838301011161016257815f926020809301838601378301015290565b60208091604051928184925191829101835e8101600581520301902090565b90600182811c92168015610c4b575b6020831014610c3757565b634e487b7160e01b5f52602260045260245ffd5b91607f1691610c2c565b9060405191825f825492610c6884610c1d565b8084529360018116908115610cd15750600114610c8d575b50610b9b92500383610b6b565b90505f9291925260205f20905f915b818310610cb5575050906020610b9b928201015f610c80565b6020919350806001915483858901015201910190918492610c9c565b905060209250610b9b94915060ff191682840152151560051b8201015f610c80565b34610162576020366003190112610162576004356001600160401b03811161016257610d316102c0610d2c6102f0933690600401610bb8565b610bfe565b60405191829160208352602083019061018e565b34610162576020366003190112610162576102f06107ba600435611428565b34610162575f366003190112610162576020600754604051908152f35b34610162576020366003190112610162576004355f526003602052602063ffffffff60405f205416604051908152f35b634e487b7160e01b5f52601160045260245ffd5b601f1981019190821161032d57565b5f1981019190821161032d57565b9190820391821161032d57565b6001600160401b038111610b4b5760051b60200190565b90610e1082610def565b610e1d6040519182610b6b565b8281528092610e2e601f1991610def565b01905f5b828110610e3e57505050565b806060602080938501015201610e32565b63ffffffff1663ffffffff811461032d5760010190565b63ffffffff60019116019063ffffffff821161032d57565b9063ffffffff8091169116019063ffffffff821161032d57565b80518210156108435760209160051b010190565b9063ffffffff8091169116039063ffffffff821161032d57565b60405190610ed382610b30565b60606040835f81525f60208201520152565b90610eef82610def565b610efc6040519182610b6b565b8281528092610f0d601f1991610def565b01905f5b828110610f1d57505050565b602090610f28610ec6565b82828501015201610f11565b90604051610f4181610b50565b809260ff815416906006821015610473576001610f6391602093855201610c55565b910152565b90604051610f7581610b30565b60028193805483526001810154602084015201908154610f9481610def565b92610fa26040519485610b6b565b81845260208401905f5260205f205f915b838310610fc4575050505060400152565b60026020600192610fd485610f34565b815201920192019190610fb3565b6020908260405193849283378101600581520301902090565b6040519061100882610b50565b5f6020838281520152565b903590607e1981360301821215610162570190565b6002111561016257565b6002111561047357565b908060209392818452848401375f828201840152601f01601f1916010190565b90602082528035602083015260208101356040830152604081013561108081611028565b60028110156104735760608301526060810135601e19823603018112156101625701602081359101906001600160401b0381116101625780360382136101625760a08360808061018b960152019161103c565b3560ff811681036101625790565b6040513d5f823e3d90fd5b3561018b81611028565b903590601e198136030182121561016257018035906001600160401b0382116101625760200191813603831361016257565b908160409103126101625760206040519161114283610b50565b803583520135602082015290565b602081830312610162578035906001600160401b038211610162570190606082820312610162576040519161118483610b30565b80358352602081013560208401526040810135906001600160401b03821161016257019080601f83011215610162578135916111bf83610def565b926111cd6040519485610b6b565b80845260208085019160051b830101918383116101625760208101915b8383106111fe575050505050604082015290565b82356001600160401b038111610162578201906040828703601f190112610162576040519061122c82610b50565b602083013560068110156101625782526040830135916001600160401b0383116101625761126288602080969581960101610bb8565b838201528152019201916111ea565b611279610ffb565b5060205f6112878380611013565b6040516112a98161129b868201948561105c565b03601f198101835282610b6b565b5190206040516112ea8161129b8682019485603c917f19457468657265756d205369676e6564204d6573736167653a0a3332000000008252601c8201520190565b5190206112f9606085016110d3565b6040805192835260ff9190911660208301528385013582820152840135606082015281805260809060015afa15611423575f516001600160a01b0316801590811561140e575b506113ff5761136161135d60206113568480611013565b0135611489565b1590565b6109905761137a60406113748380611013565b016110ec565b61138381611032565b6113b1576113ac6113a461139a8361018b94611013565b60608101906110f6565b810190611150565b6118c0565b60016113c260406113748480611013565b6113cb81611032565b146113df57634a7f394f60e01b5f5260045ffd5b6113fa6113f261139a8361018b94611013565b810190611128565b6115dd565b638baa579f60e01b5f5260045ffd5b905061141a8280611013565b3514155f61133f565b6110e1565b611430610ffb565b50805f5260016020528060405f20540361147057805f52600260205263ffffffff60405f20541660405191611466604084610b6b565b8252602082015290565b5060405161147d81610b50565b5f81525f602082015290565b604051632997fc2960e11b81527f0000000000000000000000000000000000000000000000000000000000000000600482015260248101919091526020816044816001600160a01b037f0000000000000000000000000000000000000000000000000000000000000000165afa908115611423575f91611507575090565b90506020813d602011611537575b8161152260209383610b6b565b81010312610162575180151581036101625790565b3d9150611515565b916115589183549060031b91821b915f19901b19161790565b9055565b600754600160401b811015610b4b57600181016007556007548110156108435760075f527fa66cc928b5edb82af9bd49922954155ab7b0942694bea4ce44661d9a8736c6880155565b805490600160401b821015610b4b57816115c791600161155894018155610860565b819391549060031b91821b915f19901b19161790565b6115e5610ffb565b50805190816115fc815f52600160205260405f2090565b54036116fe57611614825f52600260205260405f2090565b905f8254905b8181106116d05750506020016116318151836115a5565b51827fd2aac9324a6bc9024eeb4895d6cd6aef87b92cf5017e45126cd29ef3542a31728354926116648463ffffffff1690565b6040805192835263ffffffff91909116602083015290a261169561168c5f5463ffffffff1690565b63ffffffff1690565b11156116be575461018b9063ffffffff166116ae610b8c565b92835263ffffffff166020830152565b506116c890611d03565b61147d610b8c565b6116dd6105d88286610860565b6020840151146116ef5760010161161a565b63f6310c2560e01b5f5260045ffd5b63635e873760e01b5f5260045ffd5b5160068110156104735790565b90816020910312610162575190565b8054821015610843575f5260205f209060011b01905f90565b81811061174d575050565b5f8155600101611742565b9190601f811161176757505050565b610b9b925f5260205f20906020601f840160051c83019310611791575b601f0160051c0190611742565b9091508190611784565b91909182516001600160401b038111610b4b576117c2816117bc8454610c1d565b84611758565b6020601f82116001146117fd5781906115589394955f926117f2575b50508160011b915f199060031b1c19161790565b015190505f806117de565b601f19821690611810845f5260205f2090565b915f5b81811061184a57509583600195969710611832575b505050811b019055565b01515f1960f88460031b161c191690555f8080611828565b9192602060018192868b015181550194019201611813565b8054600160401b811015610b4b5761187f91600182018155611729565b6118ad578151916006831015610473576020600191610b9b9460ff801986541691161784550151910161179b565b634e487b7160e01b5f525f60045260245ffd5b6118c8610ffb565b50604081019081515115611abe575f5b8251805182101561195b576118f86118f283600593610e98565b5161170d565b61190181610469565b1461190e576001016118d8565b61191f602091611931939451610e98565b5101516020808251830101910161171a565b9060206001611948845f52600160205260405f2090565b015491015103610990576116c8906122f0565b50509190602083019261198461197a85515f52600360205260405f2090565b5463ffffffff1690565b61199661168c60045463ffffffff1690565b63ffffffff82161015611aaf575f5b835180518210156119cc57906119c66119c082600194610e98565b5161242c565b016119a5565b5050919290938451906119e7825f52600160205260405f2090565b955186558051600187015560025f9601955b85518051821015611a215790611a1b611a1482600194610e98565b5189611862565b016119f9565b50509194509161018b9350611a38611a6091610e66565b611a4b83515f52600360205260405f2090565b9063ffffffff1663ffffffff19825416179055565b611a698261155c565b805160405190815282907f893b6d8d4631b8381e5e0598ae30a4e7f0f1f0e719acece6b618476a0020721690602090a251611aa2610b8c565b91825260208201526115dd565b63090b564b60e01b5f5260045ffd5b634a7f394f60e01b5f5260045ffd5b81601f8201121561016257805190611ae482610b9d565b92611af26040519485610b6b565b8284526020838301011161016257815f9260208093018386015e8301015290565b9190916040818403126101625780516001600160401b0381116101625783611b3c918301611acd565b9260208201516001600160401b0381116101625761018b9201611acd565b61018b9054610c1d565b60065490600160401b821015610b4b57600182016006556006548210156108435760065f52610b9b917ff652222313e28459528d920b65115c16c04f3efc82aaedc97be59f3f377c0d3f0161179b565b9091611bcb61018b9360408452604084019061018e565b91602081840391015261018e565b90816020910312610162575161018b81610154565b91908260409103126101625760208251611c07816108bc565b92015190565b3d15611c37573d90611c1e82610b9d565b91611c2c6040519384610b6b565b82523d5f602084013e565b606090565b9091606082840312610162578151611c53816108bc565b9260208301516001600160401b03811161016257604091611c07918501611acd565b90611c7f82610b9d565b611c8c6040519182610b6b565b8281528092611c9d601f1991610b9d565b0190602036910137565b906020820180921161032d57565b908151811015610843570160200190565b80516020909101516001600160e01b0319811692919060048210611ce8575050565b6001600160e01b031960049290920360031b82901b16169150565b611d15815f52600160205260405f2090565b818154036116fe5760020180545f915b818310611d5d5750505080610b9b917f7b1bcf1ccf901a11589afff5504d59fd0a53780eed2a952adade0348985139e05f80a26122f0565b90919293611d74611d6e8584611729565b50610f34565b8051611d7f81610469565b611d8881610469565b611ed75760200151948551602087019060208251145f14611eb3575050611db7611db28751610dc5565b611c75565b935f5b611dc48851610dc5565b811015611e045780611df1611de3611ddd600194611ca7565b8b611cb5565b516001600160f81b03191690565b5f1a611dfd8289611cb5565b5301611dba565b5093611e1d919592965060208082518301019101611c3c565b6001600160a01b0390921692915b5f8083516020850184885af1611e3f611c0d565b5015611abe57600193611ea7611e757f56ded25a1cb0c2c7687c54265e8efa2110567bc139f34176aa96a35a9e769da194611cc6565b604080516001600160a01b0390941684526001600160e01b031990911660208401528201929092529081906060820190565b0390a15b019190611d25565b602090611ec593979498010190611c3c565b6001600160a01b039092169291611e2b565b6001819695929651611ee881610469565b611ef181610469565b03611f89576020611f0d91015160208082518301019101611bee565b91906001600160a01b03165f80808086855af1611f28611c0d565b5015611f7a57604080516001600160a01b03909216825260208201939093526001927fefed6b8d78a916dbd402a323824ae4454c9214b8f3d05fa85b3bb7f30dc25c069190819081015b0390a1611eab565b631e9acf1760e31b5f5260045ffd5b9081600260019351611f9a81610469565b611fa381610469565b0361202057611fe060207f1e7ef611d27d733df1fa2d1e8cf5afc95da2f98e8e603f127ee6545d00e8e1b492015160208082518301019101611bd9565b5f5463ffffffff166120008263ffffffff1663ffffffff195f5416175f55565b6040805163ffffffff928316815292909116602083015281908101611f72565b6003815161202d81610469565b61203681610469565b036120b45761207360207f9dc7fc721ab84b30390be8cfea887af9da74db8d94c0f799d200ecf0a99edc3d92015160208082518301019101611bd9565b60045463ffffffff166120968263ffffffff1663ffffffff196004541617600455565b6040805163ffffffff928316815292909116602083015290a1611eab565b600481516120c181610469565b6120ca81610469565b036121505761210760207f4780a6cf3a40932ea4b6261c23cfd06c4332976474debcc425a9f2ec2581c35592015160208082518301019101611b13565b9061211c61135d61211783610bfe565b611b5a565b612142575b6121338261212e83610bfe565b61179b565b611f7260405192839283611bb4565b61214b81611b64565b612121565b6005815161215d81610469565b61216681610469565b14612172575b50611eab565b61218c60206121919201516020808251830101910161171a565b6122f0565b5f61216c565b8054905f8155816121a6575050565b5f5260205f20908101905b8181106121bc575050565b5f81556001016121b1565b6002905f81555f6001820155018054905f8155816121e3575050565b6001600160ff1b038216820361032d575f5260205f209060011b8101905b81811061220c575050565b805f60029255600181016122208154610c1d565b908161222f575b505001612201565b601f8211600114612246575f9055505b5f80612227565b61226c61227c926001601f61225e855f5260205f2090565b920160051c82019101611742565b5f81815260208120918190559055565b61223f565b63ffffffff16801561032d575f190190565b60075480156122dc575f198101906007548210156108435760075f8181527fa66cc928b5edb82af9bd49922954155ab7b0942694bea4ce44661d9a8736c6879092019190915555565b634e487b7160e01b5f52603160045260245ffd5b612302815f52600160205260405f2090565b8181541461230e575050565b6001015461232c612327835f52600260205260405f2090565b612197565b612346612341835f52600160205260405f2090565b6121c7565b63ffffffff61236061197a835f52600360205260405f2090565b166123e7575b505f5b60075490818110156123e057826123826105d883610848565b14612391576001915001612369565b6123ac6123a66105d86105d36123b295610dd4565b91610848565b9061153f565b6123ba612293565b7f9e70f82b2c39ff8db1802828219639b786b0098beba2eb2a02ff366923ad9b2d5f80a2565b50506123ba565b6123fc612426915f52600360205260405f2090565b61241261240d825463ffffffff1690565b612281565b63ffffffff1663ffffffff19825416179055565b5f612366565b805161243781610469565b61244081610469565b6124fa5760200151908151602083019060208251145f146124da57505061246a611db28351610dc5565b5f5b6124768451610dc5565b8110156124a85780612495611de361248f600194611ca7565b87611cb5565b5f1a6124a18285611cb5565b530161246c565b506124be91925060208082518301019101611c3c565b50506001600160a01b03165b6001600160a01b031615611abe57565b6020906124ea9394010190611c3c565b50506001600160a01b03166124ca565b6001815161250781610469565b61251081610469565b0361255057602061252c91015160208082518301019101611bee565b6001600160a01b0390911615908115612547575b50611abe57565b9050155f612540565b6002815161255d81610469565b61256681610469565b0361259b57612587602063ffffffff92015160208082518301019101611bd9565b16610b9b57634a7f394f60e01b5f5260045ffd5b600381516125a881610469565b6125b181610469565b146125b95750565b6125d5602063ffffffff92015160208082518301019101611bd9565b1615611abe5756fea264697066735822122077199718fc55b849df3c04cd1e8d4986094d2edb5446361b3eab908fdfc1462964736f6c634300081c0033","linkReferences":{}},"methodIdentifiers":{"activeProposalsLimit()":"16ba2943","approvals(bytes32,uint256)":"78925021","contextConfigId()":"b20732c8","contextId()":"5aef3986","contextStorage(bytes)":"b3a89829","contextStorageEntries(uint32,uint32)":"06812719","getActiveProposalsLimit()":"5fe3eb58","getConfirmationsCount(bytes32)":"b61bf0bb","getContextValue(bytes)":"46f5cf1e","getNumApprovals()":"1cd9aa0e","getProposal(bytes32)":"430694cf","getProposalCount()":"c08cc02d","getProposals(uint32,uint32)":"39c50157","mutate(((bytes32,bytes32,uint8,bytes),bytes32,bytes32,uint8))":"5227206d","numApprovals()":"7403c5e5","numProposalsPk(bytes32)":"e271da6a","proposalApprovalsWithSigner(bytes32)":"a3378299","proposalApprovers(bytes32)":"31eadd0c","proposals(bytes32)":"32ed5b12","upgrade(address,address)":"99a88ec4"},"id":23}